{
  "contractName": "DariToken",
  "abi": [
    {
      "inputs": [],
      "stateMutability": "nonpayable",
      "type": "constructor"
    },
    {
      "anonymous": false,
      "inputs": [
        {
          "indexed": true,
          "internalType": "address",
          "name": "_owner",
          "type": "address"
        },
        {
          "indexed": true,
          "internalType": "address",
          "name": "_spender",
          "type": "address"
        },
        {
          "indexed": false,
          "internalType": "uint256",
          "name": "_value",
          "type": "uint256"
        }
      ],
      "name": "Approval",
      "type": "event"
    },
    {
      "anonymous": false,
      "inputs": [
        {
          "indexed": true,
          "internalType": "address",
          "name": "buyer",
          "type": "address"
        },
        {
          "indexed": false,
          "internalType": "uint256",
          "name": "amount",
          "type": "uint256"
        },
        {
          "indexed": false,
          "internalType": "uint256",
          "name": "cost",
          "type": "uint256"
        }
      ],
      "name": "TokensPurchased",
      "type": "event"
    },
    {
      "anonymous": false,
      "inputs": [
        {
          "indexed": true,
          "internalType": "address",
          "name": "_from",
          "type": "address"
        },
        {
          "indexed": true,
          "internalType": "address",
          "name": "_to",
          "type": "address"
        },
        {
          "indexed": false,
          "internalType": "uint256",
          "name": "_value",
          "type": "uint256"
        }
      ],
      "name": "Transfer",
      "type": "event"
    },
    {
      "inputs": [
        {
          "internalType": "address",
          "name": "",
          "type": "address"
        },
        {
          "internalType": "address",
          "name": "",
          "type": "address"
        }
      ],
      "name": "allowance",
      "outputs": [
        {
          "internalType": "uint256",
          "name": "",
          "type": "uint256"
        }
      ],
      "stateMutability": "view",
      "type": "function",
      "constant": true
    },
    {
      "inputs": [
        {
          "internalType": "address",
          "name": "",
          "type": "address"
        }
      ],
      "name": "balanceOf",
      "outputs": [
        {
          "internalType": "uint256",
          "name": "",
          "type": "uint256"
        }
      ],
      "stateMutability": "view",
      "type": "function",
      "constant": true
    },
    {
      "inputs": [],
      "name": "decimals",
      "outputs": [
        {
          "internalType": "uint8",
          "name": "",
          "type": "uint8"
        }
      ],
      "stateMutability": "view",
      "type": "function",
      "constant": true
    },
    {
      "inputs": [],
      "name": "name",
      "outputs": [
        {
          "internalType": "string",
          "name": "",
          "type": "string"
        }
      ],
      "stateMutability": "view",
      "type": "function",
      "constant": true
    },
    {
      "inputs": [],
      "name": "owner",
      "outputs": [
        {
          "internalType": "address payable",
          "name": "",
          "type": "address"
        }
      ],
      "stateMutability": "view",
      "type": "function",
      "constant": true
    },
    {
      "inputs": [],
      "name": "symbol",
      "outputs": [
        {
          "internalType": "string",
          "name": "",
          "type": "string"
        }
      ],
      "stateMutability": "view",
      "type": "function",
      "constant": true
    },
    {
      "inputs": [],
      "name": "tokenPriceInWei",
      "outputs": [
        {
          "internalType": "uint256",
          "name": "",
          "type": "uint256"
        }
      ],
      "stateMutability": "view",
      "type": "function",
      "constant": true
    },
    {
      "inputs": [],
      "name": "totalSupply",
      "outputs": [
        {
          "internalType": "uint256",
          "name": "",
          "type": "uint256"
        }
      ],
      "stateMutability": "view",
      "type": "function",
      "constant": true
    },
    {
      "inputs": [
        {
          "internalType": "address",
          "name": "_to",
          "type": "address"
        },
        {
          "internalType": "uint256",
          "name": "_value",
          "type": "uint256"
        }
      ],
      "name": "transfer",
      "outputs": [
        {
          "internalType": "bool",
          "name": "success",
          "type": "bool"
        }
      ],
      "stateMutability": "nonpayable",
      "type": "function"
    },
    {
      "inputs": [
        {
          "internalType": "address",
          "name": "_spender",
          "type": "address"
        },
        {
          "internalType": "uint256",
          "name": "_value",
          "type": "uint256"
        }
      ],
      "name": "approve",
      "outputs": [
        {
          "internalType": "bool",
          "name": "success",
          "type": "bool"
        }
      ],
      "stateMutability": "nonpayable",
      "type": "function"
    },
    {
      "inputs": [
        {
          "internalType": "address",
          "name": "_from",
          "type": "address"
        },
        {
          "internalType": "address",
          "name": "_to",
          "type": "address"
        },
        {
          "internalType": "uint256",
          "name": "_value",
          "type": "uint256"
        }
      ],
      "name": "transferFrom",
      "outputs": [
        {
          "internalType": "bool",
          "name": "success",
          "type": "bool"
        }
      ],
      "stateMutability": "nonpayable",
      "type": "function"
    },
    {
      "inputs": [
        {
          "internalType": "uint256",
          "name": "numberOfTokens",
          "type": "uint256"
        }
      ],
      "name": "purchaseTokens",
      "outputs": [
        {
          "internalType": "bool",
          "name": "success",
          "type": "bool"
        }
      ],
      "stateMutability": "payable",
      "type": "function",
      "payable": true
    }
  ],
  "bytecode": "0x60806040526040518060400160405280600a81526020017f4441524920546f6b656e00000000000000000000000000000000000000000000815250600090805190602001906200005192919062000170565b506040518060400160405280600481526020017f4441524900000000000000000000000000000000000000000000000000000000815250600190805190602001906200009f92919062000170565b5069d3c21bcecceda10000006002556012600360006101000a81548160ff021916908360ff16021790555066038d7ea4c68000600655348015620000e257600080fd5b50600254600460003373ffffffffffffffffffffffffffffffffffffffff1673ffffffffffffffffffffffffffffffffffffffff1681526020019081526020016000208190555033600360016101000a81548173ffffffffffffffffffffffffffffffffffffffff021916908373ffffffffffffffffffffffffffffffffffffffff16021790555062000285565b8280546200017e9062000220565b90600052602060002090601f016020900481019282620001a25760008555620001ee565b82601f10620001bd57805160ff1916838001178555620001ee565b82800160010185558215620001ee579182015b82811115620001ed578251825591602001919060010190620001d0565b5b509050620001fd919062000201565b5090565b5b808211156200021c57600081600090555060010162000202565b5090565b600060028204905060018216806200023957607f821691505b6020821081141562000250576200024f62000256565b5b50919050565b7f4e487b7100000000000000000000000000000000000000000000000000000000600052602260045260246000fd5b61132d80620002956000396000f3fe6080604052600436106100a75760003560e01c806370a082311161006457806370a08231146101d25780637b97008d1461020f5780638da5cb5b1461023f57806395d89b411461026a578063a9059cbb14610295578063dd62ed3e146102d2576100a7565b806306fdde03146100ac578063095ea7b3146100d757806318160ddd1461011457806323b872dd1461013f5780632f8de8101461017c578063313ce567146101a7575b600080fd5b3480156100b857600080fd5b506100c161030f565b6040516100ce9190610ec0565b60405180910390f35b3480156100e357600080fd5b506100fe60048036038101906100f99190610d47565b61039d565b60405161010b9190610ea5565b60405180910390f35b34801561012057600080fd5b5061012961048f565b6040516101369190610f42565b60405180910390f35b34801561014b57600080fd5b5061016660048036038101906101619190610cf8565b610495565b6040516101739190610ea5565b60405180910390f35b34801561018857600080fd5b5061019161071b565b60405161019e9190610f42565b60405180910390f35b3480156101b357600080fd5b506101bc610721565b6040516101c99190610f86565b60405180910390f35b3480156101de57600080fd5b506101f960048036038101906101f49190610c93565b610734565b6040516102069190610f42565b60405180910390f35b61022960048036038101906102249190610d83565b61074c565b6040516102369190610ea5565b60405180910390f35b34801561024b57600080fd5b50610254610a27565b6040516102619190610e8a565b60405180910390f35b34801561027657600080fd5b5061027f610a4d565b60405161028c9190610ec0565b60405180910390f35b3480156102a157600080fd5b506102bc60048036038101906102b79190610d47565b610adb565b6040516102c99190610ea5565b60405180910390f35b3480156102de57600080fd5b506102f960048036038101906102f49190610cbc565b610c44565b6040516103069190610f42565b60405180910390f35b6000805461031c9061113b565b80601f01602080910402602001604051908101604052809291908181526020018280546103489061113b565b80156103955780601f1061036a57610100808354040283529160200191610395565b820191906000526020600020905b81548152906001019060200180831161037857829003601f168201915b505050505081565b600081600560003373ffffffffffffffffffffffffffffffffffffffff1673ffffffffffffffffffffffffffffffffffffffff16815260200190815260200160002060008573ffffffffffffffffffffffffffffffffffffffff1673ffffffffffffffffffffffffffffffffffffffff168152602001908152602001600020819055508273ffffffffffffffffffffffffffffffffffffffff163373ffffffffffffffffffffffffffffffffffffffff167f8c5be1e5ebec7d5bd14f71427d1e84f3dd0314c0f7b2291e5b200ac8c7c3b9258460405161047d9190610f42565b60405180910390a36001905092915050565b60025481565b6000600460008573ffffffffffffffffffffffffffffffffffffffff1673ffffffffffffffffffffffffffffffffffffffff168152602001908152602001600020548211156104e357600080fd5b600560008573ffffffffffffffffffffffffffffffffffffffff1673ffffffffffffffffffffffffffffffffffffffff16815260200190815260200160002060003373ffffffffffffffffffffffffffffffffffffffff1673ffffffffffffffffffffffffffffffffffffffff1681526020019081526020016000205482111561056c57600080fd5b81600460008673ffffffffffffffffffffffffffffffffffffffff1673ffffffffffffffffffffffffffffffffffffffff16815260200190815260200160002060008282546105bb919061106d565b9250508190555081600460008573ffffffffffffffffffffffffffffffffffffffff1673ffffffffffffffffffffffffffffffffffffffff16815260200190815260200160002060008282546106119190610fbd565b9250508190555081600560008673ffffffffffffffffffffffffffffffffffffffff1673ffffffffffffffffffffffffffffffffffffffff16815260200190815260200160002060003373ffffffffffffffffffffffffffffffffffffffff1673ffffffffffffffffffffffffffffffffffffffff16815260200190815260200160002060008282546106a4919061106d565b925050819055508273ffffffffffffffffffffffffffffffffffffffff168473ffffffffffffffffffffffffffffffffffffffff167fddf252ad1be2c89b69c2b068fc378daa952ba7f163c4a11628f55a4df523b3ef846040516107089190610f42565b60405180910390a3600190509392505050565b60065481565b600360009054906101000a900460ff1681565b60046020528060005260406000206000915090505481565b6000808211610790576040517f08c379a000000000000000000000000000000000000000000000000000000000815260040161078790610ee2565b60405180910390fd5b6006548261079e9190611013565b3410156107e0576040517f08c379a00000000000000000000000000000000000000000000000000000000081526004016107d790610f22565b60405180910390fd5b6000600654836107f09190611013565b90508260046000600360019054906101000a900473ffffffffffffffffffffffffffffffffffffffff1673ffffffffffffffffffffffffffffffffffffffff1673ffffffffffffffffffffffffffffffffffffffff168152602001908152602001600020541015610896576040517f08c379a000000000000000000000000000000000000000000000000000000000815260040161088d90610f02565b60405180910390fd5b8260046000600360019054906101000a900473ffffffffffffffffffffffffffffffffffffffff1673ffffffffffffffffffffffffffffffffffffffff1673ffffffffffffffffffffffffffffffffffffffff1681526020019081526020016000206000828254610907919061106d565b9250508190555082600460003373ffffffffffffffffffffffffffffffffffffffff1673ffffffffffffffffffffffffffffffffffffffff168152602001908152602001600020600082825461095d9190610fbd565b92505081905550600360019054906101000a900473ffffffffffffffffffffffffffffffffffffffff1673ffffffffffffffffffffffffffffffffffffffff166108fc829081150290604051600060405180830381858888f193505050501580156109cc573d6000803e3d6000fd5b503373ffffffffffffffffffffffffffffffffffffffff167f8fafebcaf9d154343dad25669bfa277f4fbacd7ac6b0c4fed522580e040a0f338483604051610a15929190610f5d565b60405180910390a26001915050919050565b600360019054906101000a900473ffffffffffffffffffffffffffffffffffffffff1681565b60018054610a5a9061113b565b80601f0160208091040260200160405190810160405280929190818152602001828054610a869061113b565b8015610ad35780601f10610aa857610100808354040283529160200191610ad3565b820191906000526020600020905b815481529060010190602001808311610ab657829003601f168201915b505050505081565b600081600460003373ffffffffffffffffffffffffffffffffffffffff1673ffffffffffffffffffffffffffffffffffffffff168152602001908152602001600020541015610b2957600080fd5b81600460003373ffffffffffffffffffffffffffffffffffffffff1673ffffffffffffffffffffffffffffffffffffffff1681526020019081526020016000206000828254610b78919061106d565b9250508190555081600460008573ffffffffffffffffffffffffffffffffffffffff1673ffffffffffffffffffffffffffffffffffffffff1681526020019081526020016000206000828254610bce9190610fbd565b925050819055508273ffffffffffffffffffffffffffffffffffffffff163373ffffffffffffffffffffffffffffffffffffffff167fddf252ad1be2c89b69c2b068fc378daa952ba7f163c4a11628f55a4df523b3ef84604051610c329190610f42565b60405180910390a36001905092915050565b6005602052816000526040600020602052806000526040600020600091509150505481565b600081359050610c78816112c9565b92915050565b600081359050610c8d816112e0565b92915050565b600060208284031215610ca557600080fd5b6000610cb384828501610c69565b91505092915050565b60008060408385031215610ccf57600080fd5b6000610cdd85828601610c69565b9250506020610cee85828601610c69565b9150509250929050565b600080600060608486031215610d0d57600080fd5b6000610d1b86828701610c69565b9350506020610d2c86828701610c69565b9250506040610d3d86828701610c7e565b9150509250925092565b60008060408385031215610d5a57600080fd5b6000610d6885828601610c69565b9250506020610d7985828601610c7e565b9150509250929050565b600060208284031215610d9557600080fd5b6000610da384828501610c7e565b91505092915050565b610db5816110b3565b82525050565b610dc4816110c5565b82525050565b6000610dd582610fa1565b610ddf8185610fac565b9350610def818560208601611108565b610df8816111cb565b840191505092915050565b6000610e10602a83610fac565b9150610e1b826111dc565b604082019050919050565b6000610e33603483610fac565b9150610e3e8261122b565b604082019050919050565b6000610e56602183610fac565b9150610e618261127a565b604082019050919050565b610e75816110f1565b82525050565b610e84816110fb565b82525050565b6000602082019050610e9f6000830184610dac565b92915050565b6000602082019050610eba6000830184610dbb565b92915050565b60006020820190508181036000830152610eda8184610dca565b905092915050565b60006020820190508181036000830152610efb81610e03565b9050919050565b60006020820190508181036000830152610f1b81610e26565b9050919050565b60006020820190508181036000830152610f3b81610e49565b9050919050565b6000602082019050610f576000830184610e6c565b92915050565b6000604082019050610f726000830185610e6c565b610f7f6020830184610e6c565b9392505050565b6000602082019050610f9b6000830184610e7b565b92915050565b600081519050919050565b600082825260208201905092915050565b6000610fc8826110f1565b9150610fd3836110f1565b9250827fffffffffffffffffffffffffffffffffffffffffffffffffffffffffffffffff038211156110085761100761116d565b5b828201905092915050565b600061101e826110f1565b9150611029836110f1565b9250817fffffffffffffffffffffffffffffffffffffffffffffffffffffffffffffffff04831182151516156110625761106161116d565b5b828202905092915050565b6000611078826110f1565b9150611083836110f1565b9250828210156110965761109561116d565b5b828203905092915050565b60006110ac826110d1565b9050919050565b60006110be826110d1565b9050919050565b60008115159050919050565b600073ffffffffffffffffffffffffffffffffffffffff82169050919050565b6000819050919050565b600060ff82169050919050565b60005b8381101561112657808201518184015260208101905061110b565b83811115611135576000848401525b50505050565b6000600282049050600182168061115357607f821691505b602082108114156111675761116661119c565b5b50919050565b7f4e487b7100000000000000000000000000000000000000000000000000000000600052601160045260246000fd5b7f4e487b7100000000000000000000000000000000000000000000000000000000600052602260045260246000fd5b6000601f19601f8301169050919050565b7f4c612063616e746964616420646520746f6b656e73206465626520736572206d60008201527f61796f7220717565203000000000000000000000000000000000000000000000602082015250565b7f4e6f2068617920737566696369656e74657320746f6b656e7320646973706f6e60008201527f69626c65732070617261206c6120636f6d707261000000000000000000000000602082015250565b7f4e6f20736520686120656e766961646f20737566696369656e7465206574686560008201527f7200000000000000000000000000000000000000000000000000000000000000602082015250565b6112d2816110a1565b81146112dd57600080fd5b50565b6112e9816110f1565b81146112f457600080fd5b5056fea2646970667358221220844876b98e7a9301f7f6eac8faf18b824d034f6c6f8a6f76dce0fd08e4d807e064736f6c63430008040033",
  "immutableReferences": {},
  "source": "// SPDX-License-Identifier: MIT\npragma solidity ^0.8.4;\n\ncontract DariToken {\n\n    // Declaraciones \n    string public name = \"DARI Token\";\n    string public symbol = \"DARI\";\n    uint256 public totalSupply = 1000000000000000000000000; \n    uint8 public decimals = 18;\n\n    address payable public owner;\n\n    // Evento para la transferencia de tokens de un usuario\n    event Transfer (\n        address indexed _from,\n        address indexed _to,\n        uint256 _value\n    );\n\n    // Evento para la aprobacion de un operador\n    event Approval (\n        address indexed _owner, \n        address indexed _spender, \n        uint256 _value\n    );\n\n    // Estructuras de datos \n    mapping(address => uint256) public balanceOf;\n    mapping(address => mapping(address => uint)) public allowance;\n\n    // Constructor \n    constructor(){\n        balanceOf[msg.sender] = totalSupply;\n        owner = payable(msg.sender);\n    }\n\n    // Transferencia de tokens de un usuario\n    function transfer(address _to, uint256 _value) public returns (bool success){\n        require(balanceOf[msg.sender] >= _value);\n        balanceOf[msg.sender] -= _value;\n        balanceOf[_to] += _value;\n        emit Transfer(msg.sender, _to, _value);\n        return true;\n    }\n\n    // Aprobacion de una cantidad para ser gastada por un operador\n    function approve(address _spender, uint256 _value) public returns (bool success){\n        allowance[msg.sender][_spender] = _value;\n        emit Approval(msg.sender, _spender, _value);\n        return true;\n    }\n\n    // Transferencia de tokens especificando el emisor\n    function transferFrom(address _from, address _to, uint256 _value) public returns (bool success){\n        require(_value <= balanceOf[_from]);\n        require(_value <= allowance[_from][msg.sender]);\n        balanceOf[_from] -= _value;\n        balanceOf[_to] += _value;\n        allowance[_from][msg.sender] -= _value;\n        emit Transfer(_from, _to, _value);\n        return true;\n    }\n\n    //Compra de tokens\n\n\n// Precio en ethers por token DARI (ajusta este valor segn tus necesidades)\nuint256 public tokenPriceInWei = 1000000000000000; // 0.001 ETH\n\n// Evento para registrar las compras de tokens\nevent TokensPurchased(\n    address indexed buyer,\n    uint256 amount,\n    uint256 cost\n);\n\n// Funcin para que los usuarios compren tokens DARI\nfunction purchaseTokens(uint256 numberOfTokens) public payable returns (bool success) {\n    require(numberOfTokens > 0, \"La cantidad de tokens debe ser mayor que 0\");\n    require(msg.value >= numberOfTokens * tokenPriceInWei, \"No se ha enviado suficiente ether\");\n\n    // Calcular el costo total en ethers\n    uint256 totalCost = numberOfTokens * tokenPriceInWei;\n\n    // Verificar si hay suficientes tokens disponibles para la compra\n    require(balanceOf[owner] >= numberOfTokens, \"No hay suficientes tokens disponibles para la compra\");\n\n    // Realizar la transferencia de tokens al comprador\n    balanceOf[owner] -= numberOfTokens;\n    balanceOf[msg.sender] += numberOfTokens;\n\n    // Transferir ethers al propietario del contrato\n    owner.transfer(totalCost);\n\n    // Emitir el evento de compra de tokens\n    emit TokensPurchased(msg.sender, numberOfTokens, totalCost);\n\n    return true;\n}\n\n}",
  "sourcePath": "D:\\Dariel\\Desktop\\Dapp\\DeFi\\src\\contracts\\DariToken.sol",
  "compiler": {
    "name": "solc",
    "version": "0.8.4+commit.c7e474f2.Emscripten.clang"
  },
  "schemaVersion": "3.4.7",
  "updatedAt": "2023-09-25T08:52:43.232Z",
  "networkType": "ethereum",
  "devdoc": {
    "kind": "dev",
    "methods": {},
    "version": 1
  },
  "userdoc": {
    "kind": "user",
    "methods": {},
    "version": 1
  }
}